{
  "_format": "hh-sol-artifact-1",
  "contractName": "MyEpicNFT",
  "sourceName": "contracts/MyEpicNFT.sol",
  "abi": [
    {
      "inputs": [],
      "stateMutability": "nonpayable",
      "type": "constructor"
    },
    {
      "anonymous": false,
      "inputs": [
        {
          "indexed": true,
          "internalType": "address",
          "name": "owner",
          "type": "address"
        },
        {
          "indexed": true,
          "internalType": "address",
          "name": "approved",
          "type": "address"
        },
        {
          "indexed": true,
          "internalType": "uint256",
          "name": "tokenId",
          "type": "uint256"
        }
      ],
      "name": "Approval",
      "type": "event"
    },
    {
      "anonymous": false,
      "inputs": [
        {
          "indexed": true,
          "internalType": "address",
          "name": "owner",
          "type": "address"
        },
        {
          "indexed": true,
          "internalType": "address",
          "name": "operator",
          "type": "address"
        },
        {
          "indexed": false,
          "internalType": "bool",
          "name": "approved",
          "type": "bool"
        }
      ],
      "name": "ApprovalForAll",
      "type": "event"
    },
    {
      "anonymous": false,
      "inputs": [
        {
          "indexed": false,
          "internalType": "address",
          "name": "sender",
          "type": "address"
        },
        {
          "indexed": false,
          "internalType": "uint256",
          "name": "tokenId",
          "type": "uint256"
        }
      ],
      "name": "NewEpicNFTMinted",
      "type": "event"
    },
    {
      "anonymous": false,
      "inputs": [
        {
          "indexed": true,
          "internalType": "address",
          "name": "from",
          "type": "address"
        },
        {
          "indexed": true,
          "internalType": "address",
          "name": "to",
          "type": "address"
        },
        {
          "indexed": true,
          "internalType": "uint256",
          "name": "tokenId",
          "type": "uint256"
        }
      ],
      "name": "Transfer",
      "type": "event"
    },
    {
      "inputs": [
        {
          "internalType": "address",
          "name": "to",
          "type": "address"
        },
        {
          "internalType": "uint256",
          "name": "tokenId",
          "type": "uint256"
        }
      ],
      "name": "approve",
      "outputs": [],
      "stateMutability": "nonpayable",
      "type": "function"
    },
    {
      "inputs": [
        {
          "internalType": "address",
          "name": "owner",
          "type": "address"
        }
      ],
      "name": "balanceOf",
      "outputs": [
        {
          "internalType": "uint256",
          "name": "",
          "type": "uint256"
        }
      ],
      "stateMutability": "view",
      "type": "function"
    },
    {
      "inputs": [
        {
          "internalType": "uint256",
          "name": "tokenId",
          "type": "uint256"
        }
      ],
      "name": "getApproved",
      "outputs": [
        {
          "internalType": "address",
          "name": "",
          "type": "address"
        }
      ],
      "stateMutability": "view",
      "type": "function"
    },
    {
      "inputs": [
        {
          "internalType": "address",
          "name": "owner",
          "type": "address"
        },
        {
          "internalType": "address",
          "name": "operator",
          "type": "address"
        }
      ],
      "name": "isApprovedForAll",
      "outputs": [
        {
          "internalType": "bool",
          "name": "",
          "type": "bool"
        }
      ],
      "stateMutability": "view",
      "type": "function"
    },
    {
      "inputs": [],
      "name": "makeAnEpicNFT",
      "outputs": [],
      "stateMutability": "nonpayable",
      "type": "function"
    },
    {
      "inputs": [],
      "name": "name",
      "outputs": [
        {
          "internalType": "string",
          "name": "",
          "type": "string"
        }
      ],
      "stateMutability": "view",
      "type": "function"
    },
    {
      "inputs": [
        {
          "internalType": "uint256",
          "name": "tokenId",
          "type": "uint256"
        }
      ],
      "name": "ownerOf",
      "outputs": [
        {
          "internalType": "address",
          "name": "",
          "type": "address"
        }
      ],
      "stateMutability": "view",
      "type": "function"
    },
    {
      "inputs": [
        {
          "internalType": "uint256",
          "name": "tokenId",
          "type": "uint256"
        }
      ],
      "name": "pickRandomFirstWord",
      "outputs": [
        {
          "internalType": "string",
          "name": "",
          "type": "string"
        }
      ],
      "stateMutability": "view",
      "type": "function"
    },
    {
      "inputs": [
        {
          "internalType": "uint256",
          "name": "tokenId",
          "type": "uint256"
        }
      ],
      "name": "pickRandomSecondWord",
      "outputs": [
        {
          "internalType": "string",
          "name": "",
          "type": "string"
        }
      ],
      "stateMutability": "view",
      "type": "function"
    },
    {
      "inputs": [
        {
          "internalType": "uint256",
          "name": "tokenId",
          "type": "uint256"
        }
      ],
      "name": "pickRandomThirdWord",
      "outputs": [
        {
          "internalType": "string",
          "name": "",
          "type": "string"
        }
      ],
      "stateMutability": "view",
      "type": "function"
    },
    {
      "inputs": [
        {
          "internalType": "address",
          "name": "from",
          "type": "address"
        },
        {
          "internalType": "address",
          "name": "to",
          "type": "address"
        },
        {
          "internalType": "uint256",
          "name": "tokenId",
          "type": "uint256"
        }
      ],
      "name": "safeTransferFrom",
      "outputs": [],
      "stateMutability": "nonpayable",
      "type": "function"
    },
    {
      "inputs": [
        {
          "internalType": "address",
          "name": "from",
          "type": "address"
        },
        {
          "internalType": "address",
          "name": "to",
          "type": "address"
        },
        {
          "internalType": "uint256",
          "name": "tokenId",
          "type": "uint256"
        },
        {
          "internalType": "bytes",
          "name": "_data",
          "type": "bytes"
        }
      ],
      "name": "safeTransferFrom",
      "outputs": [],
      "stateMutability": "nonpayable",
      "type": "function"
    },
    {
      "inputs": [
        {
          "internalType": "address",
          "name": "operator",
          "type": "address"
        },
        {
          "internalType": "bool",
          "name": "approved",
          "type": "bool"
        }
      ],
      "name": "setApprovalForAll",
      "outputs": [],
      "stateMutability": "nonpayable",
      "type": "function"
    },
    {
      "inputs": [
        {
          "internalType": "bytes4",
          "name": "interfaceId",
          "type": "bytes4"
        }
      ],
      "name": "supportsInterface",
      "outputs": [
        {
          "internalType": "bool",
          "name": "",
          "type": "bool"
        }
      ],
      "stateMutability": "view",
      "type": "function"
    },
    {
      "inputs": [],
      "name": "symbol",
      "outputs": [
        {
          "internalType": "string",
          "name": "",
          "type": "string"
        }
      ],
      "stateMutability": "view",
      "type": "function"
    },
    {
      "inputs": [
        {
          "internalType": "uint256",
          "name": "tokenId",
          "type": "uint256"
        }
      ],
      "name": "tokenURI",
      "outputs": [
        {
          "internalType": "string",
          "name": "",
          "type": "string"
        }
      ],
      "stateMutability": "view",
      "type": "function"
    },
    {
      "inputs": [
        {
          "internalType": "address",
          "name": "from",
          "type": "address"
        },
        {
          "internalType": "address",
          "name": "to",
          "type": "address"
        },
        {
          "internalType": "uint256",
          "name": "tokenId",
          "type": "uint256"
        }
      ],
      "name": "transferFrom",
      "outputs": [],
      "stateMutability": "nonpayable",
      "type": "function"
    }
  ],
  "bytecode": "0x608060405260405180610160016040528061012f81526020016200455d61012f913960089080519060200190620000389291906200067e565b506040518060c001604052806040518060400160405280600581526020017f426c61636b00000000000000000000000000000000000000000000000000000081525081526020016040518060400160405280600681526020017f59656c6c6f77000000000000000000000000000000000000000000000000000081525081526020016040518060400160405280600681526020017f4d61726f6f6e000000000000000000000000000000000000000000000000000081525081526020016040518060400160405280600581526020017f42726f776e00000000000000000000000000000000000000000000000000000081525081526020016040518060400160405280600681526020017f507572706c65000000000000000000000000000000000000000000000000000081525081526020016040518060400160405280600681526020017f476f6c64656e00000000000000000000000000000000000000000000000000008152508152506009906006620001b69291906200070f565b506040518060c001604052806040518060400160405280600981526020017f5065707065726f6e69000000000000000000000000000000000000000000000081525081526020016040518060400160405280600781526020017f536175736167650000000000000000000000000000000000000000000000000081525081526020016040518060400160405280600581526020017f4f6e696f6e00000000000000000000000000000000000000000000000000000081525081526020016040518060400160405280600781526020017f506570706572730000000000000000000000000000000000000000000000000081525081526020016040518060400160405280600681526020017f4f6c69766573000000000000000000000000000000000000000000000000000081525081526020016040518060400160405280600781526020017f5370696e61636800000000000000000000000000000000000000000000000000815250815250600a906006620003349291906200070f565b506040518060c001604052806040518060400160405280600981526020017f53706f6e6765626f62000000000000000000000000000000000000000000000081525081526020016040518060400160405280600881526020017f506c616e6b746f6e00000000000000000000000000000000000000000000000081525081526020016040518060400160405280600981526020017f537175696477617264000000000000000000000000000000000000000000000081525081526020016040518060400160405280600581526020017f4b6172656e00000000000000000000000000000000000000000000000000000081525081526020016040518060400160405280600b81526020017f53616e6479636865656b7300000000000000000000000000000000000000000081525081526020016040518060400160405280600781526020017f4d724b7261627300000000000000000000000000000000000000000000000000815250815250600b906006620004b29291906200070f565b50348015620004c057600080fd5b506040518060400160405280600981526020017f5371756172654e465400000000000000000000000000000000000000000000008152506040518060400160405280600681526020017f53515541524500000000000000000000000000000000000000000000000000008152508160009080519060200190620005459291906200067e565b5080600190805190602001906200055e9291906200067e565b505050620005ac6040518060400160405280601e81526020017f54686973206973206d79204e465420636f6e74726163742e20576f6168210000815250620005b260201b6200126b1760201c565b62000930565b6200065281604051602401620005c9919062000844565b6040516020818303038152906040527f41304fac000000000000000000000000000000000000000000000000000000007bffffffffffffffffffffffffffffffffffffffffffffffffffffffff19166020820180517bffffffffffffffffffffffffffffffffffffffffffffffffffffffff83818316178352505050506200065560201b60201c565b50565b60008151905060006a636f6e736f6c652e6c6f679050602083016000808483855afa5050505050565b8280546200068c90620008ba565b90600052602060002090601f016020900481019282620006b05760008555620006fc565b82601f10620006cb57805160ff1916838001178555620006fc565b82800160010185558215620006fc579182015b82811115620006fb578251825591602001919060010190620006de565b5b5090506200070b919062000776565b5090565b82805482825590600052602060002090810192821562000763579160200282015b8281111562000762578251829080519060200190620007519291906200067e565b509160200191906001019062000730565b5b50905062000772919062000795565b5090565b5b808211156200079157600081600090555060010162000777565b5090565b5b80821115620007b95760008181620007af9190620007bd565b5060010162000796565b5090565b508054620007cb90620008ba565b6000825580601f10620007df575062000800565b601f016020900490600052602060002090810190620007ff919062000776565b5b50565b6000620008108262000868565b6200081c818562000873565b93506200082e81856020860162000884565b62000839816200091f565b840191505092915050565b6000602082019050818103600083015262000860818462000803565b905092915050565b600081519050919050565b600082825260208201905092915050565b60005b83811015620008a457808201518184015260208101905062000887565b83811115620008b4576000848401525b50505050565b60006002820490506001821680620008d357607f821691505b60208210811415620008ea57620008e9620008f0565b5b50919050565b7f4e487b7100000000000000000000000000000000000000000000000000000000600052602260045260246000fd5b6000601f19601f8301169050919050565b613c1d80620009406000396000f3fe608060405234801561001057600080fd5b506004361061010b5760003560e01c806370a08231116100a2578063b88d4fde11610071578063b88d4fde146102dc578063c575757a146102f8578063c87b56dd14610328578063de9d132f14610358578063e985e9c5146103625761010b565b806370a082311461024257806395d89b4114610272578063a22cb46514610290578063b187301f146102ac5761010b565b806323b872dd116100de57806323b872dd146101aa5780632de38d68146101c657806342842e0e146101f65780636352211e146102125761010b565b806301ffc9a71461011057806306fdde0314610140578063081812fc1461015e578063095ea7b31461018e575b600080fd5b61012a600480360381019061012591906124fe565b610392565b604051610137919061313a565b60405180910390f35b610148610474565b6040516101559190613155565b60405180910390f35b61017860048036038101906101739190612550565b610506565b60405161018591906130aa565b60405180910390f35b6101a860048036038101906101a391906124c2565b61058b565b005b6101c460048036038101906101bf91906123bc565b6106a3565b005b6101e060048036038101906101db9190612550565b610703565b6040516101ed9190613155565b60405180910390f35b610210600480360381019061020b91906123bc565b610821565b005b61022c60048036038101906102279190612550565b610841565b60405161023991906130aa565b60405180910390f35b61025c60048036038101906102579190612357565b6108f3565b60405161026991906133b5565b60405180910390f35b61027a6109ab565b6040516102879190613155565b60405180910390f35b6102aa60048036038101906102a59190612486565b610a3d565b005b6102c660048036038101906102c19190612550565b610bbe565b6040516102d39190613155565b60405180910390f35b6102f660048036038101906102f1919061240b565b610cdc565b005b610312600480360381019061030d9190612550565b610d3e565b60405161031f9190613155565b60405180910390f35b610342600480360381019061033d9190612550565b610e5c565b60405161034f9190613155565b60405180910390f35b610360610fae565b005b61037c60048036038101906103779190612380565b6111d7565b604051610389919061313a565b60405180910390f35b60007f80ac58cd000000000000000000000000000000000000000000000000000000007bffffffffffffffffffffffffffffffffffffffffffffffffffffffff1916827bffffffffffffffffffffffffffffffffffffffffffffffffffffffff1916148061045d57507f5b5e139f000000000000000000000000000000000000000000000000000000007bffffffffffffffffffffffffffffffffffffffffffffffffffffffff1916827bffffffffffffffffffffffffffffffffffffffffffffffffffffffff1916145b8061046d575061046c82611304565b5b9050919050565b60606000805461048390613654565b80601f01602080910402602001604051908101604052809291908181526020018280546104af90613654565b80156104fc5780601f106104d1576101008083540402835291602001916104fc565b820191906000526020600020905b8154815290600101906020018083116104df57829003601f168201915b5050505050905090565b60006105118261136e565b610550576040517f08c379a000000000000000000000000000000000000000000000000000000000815260040161054790613315565b60405180910390fd5b6004600083815260200190815260200160002060009054906101000a900473ffffffffffffffffffffffffffffffffffffffff169050919050565b600061059682610841565b90508073ffffffffffffffffffffffffffffffffffffffff168373ffffffffffffffffffffffffffffffffffffffff161415610607576040517f08c379a00000000000000000000000000000000000000000000000000000000081526004016105fe90613375565b60405180910390fd5b8073ffffffffffffffffffffffffffffffffffffffff166106266113da565b73ffffffffffffffffffffffffffffffffffffffff16148061065557506106548161064f6113da565b6111d7565b5b610694576040517f08c379a000000000000000000000000000000000000000000000000000000000815260040161068b90613255565b60405180910390fd5b61069e83836113e2565b505050565b6106b46106ae6113da565b8261149b565b6106f3576040517f08c379a00000000000000000000000000000000000000000000000000000000081526004016106ea90613395565b60405180910390fd5b6106fe838383611579565b505050565b60606000610737610713846117d5565b6040516020016107239190613066565b604051602081830303815290604052611982565b90506009805490508161074a91906136cf565b905060098181548110610786577f4e487b7100000000000000000000000000000000000000000000000000000000600052603260045260246000fd5b90600052602060002001805461079b90613654565b80601f01602080910402602001604051908101604052809291908181526020018280546107c790613654565b80156108145780601f106107e957610100808354040283529160200191610814565b820191906000526020600020905b8154815290600101906020018083116107f757829003601f168201915b5050505050915050919050565b61083c83838360405180602001604052806000815250610cdc565b505050565b6000806002600084815260200190815260200160002060009054906101000a900473ffffffffffffffffffffffffffffffffffffffff169050600073ffffffffffffffffffffffffffffffffffffffff168173ffffffffffffffffffffffffffffffffffffffff1614156108ea576040517f08c379a00000000000000000000000000000000000000000000000000000000081526004016108e190613295565b60405180910390fd5b80915050919050565b60008073ffffffffffffffffffffffffffffffffffffffff168273ffffffffffffffffffffffffffffffffffffffff161415610964576040517f08c379a000000000000000000000000000000000000000000000000000000000815260040161095b90613275565b60405180910390fd5b600360008373ffffffffffffffffffffffffffffffffffffffff1673ffffffffffffffffffffffffffffffffffffffff168152602001908152602001600020549050919050565b6060600180546109ba90613654565b80601f01602080910402602001604051908101604052809291908181526020018280546109e690613654565b8015610a335780601f10610a0857610100808354040283529160200191610a33565b820191906000526020600020905b815481529060010190602001808311610a1657829003601f168201915b5050505050905090565b610a456113da565b73ffffffffffffffffffffffffffffffffffffffff168273ffffffffffffffffffffffffffffffffffffffff161415610ab3576040517f08c379a0000000000000000000000000000000000000000000000000000000008152600401610aaa90613215565b60405180910390fd5b8060056000610ac06113da565b73ffffffffffffffffffffffffffffffffffffffff1673ffffffffffffffffffffffffffffffffffffffff16815260200190815260200160002060008473ffffffffffffffffffffffffffffffffffffffff1673ffffffffffffffffffffffffffffffffffffffff16815260200190815260200160002060006101000a81548160ff0219169083151502179055508173ffffffffffffffffffffffffffffffffffffffff16610b6d6113da565b73ffffffffffffffffffffffffffffffffffffffff167f17307eab39ab6107e8899845ad3d59bd9653f200f220920489ca2b5937696c3183604051610bb2919061313a565b60405180910390a35050565b60606000610bf2610bce846117d5565b604051602001610bde9190612fff565b604051602081830303815290604052611982565b9050600a8054905081610c0591906136cf565b9050600a8181548110610c41577f4e487b7100000000000000000000000000000000000000000000000000000000600052603260045260246000fd5b906000526020600020018054610c5690613654565b80601f0160208091040260200160405190810160405280929190818152602001828054610c8290613654565b8015610ccf5780601f10610ca457610100808354040283529160200191610ccf565b820191906000526020600020905b815481529060010190602001808311610cb257829003601f168201915b5050505050915050919050565b610ced610ce76113da565b8361149b565b610d2c576040517f08c379a0000000000000000000000000000000000000000000000000000000008152600401610d2390613395565b60405180910390fd5b610d38848484846119b5565b50505050565b60606000610d72610d4e846117d5565b604051602001610d5e9190612fdd565b604051602081830303815290604052611982565b9050600b8054905081610d8591906136cf565b9050600b8181548110610dc1577f4e487b7100000000000000000000000000000000000000000000000000000000600052603260045260246000fd5b906000526020600020018054610dd690613654565b80601f0160208091040260200160405190810160405280929190818152602001828054610e0290613654565b8015610e4f5780601f10610e2457610100808354040283529160200191610e4f565b820191906000526020600020905b815481529060010190602001808311610e3257829003601f168201915b5050505050915050919050565b6060610e678261136e565b610ea6576040517f08c379a0000000000000000000000000000000000000000000000000000000008152600401610e9d906132f5565b60405180910390fd5b6000600660008481526020019081526020016000208054610ec690613654565b80601f0160208091040260200160405190810160405280929190818152602001828054610ef290613654565b8015610f3f5780601f10610f1457610100808354040283529160200191610f3f565b820191906000526020600020905b815481529060010190602001808311610f2257829003601f168201915b505050505090506000610f50611a11565b9050600081511415610f66578192505050610fa9565b600082511115610f9b578082604051602001610f83929190612f3f565b60405160208183030381529060405292505050610fa9565b610fa484611a28565b925050505b919050565b6000610fba6007611acf565b90506000610fc782610703565b90506000610fd483610bbe565b90506000610fe184610d3e565b90506000838383604051602001610ffa93929190612f63565b6040516020818303038152906040529050600060088585856040516020016110259493929190612f94565b6040516020818303038152906040529050600061106a8361104584611add565b604051602001611056929190613021565b604051602081830303815290604052611add565b905060008160405160200161107f9190613088565b60405160208183030381529060405290506110ce6040518060400160405280601581526020017f0a2d2d2d2d2d2d2d2d2d2d2d2d2d2d2d2d2d2d2d2d000000000000000000000081525061126b565b6110d78361126b565b6111156040518060400160405280601581526020017f2d2d2d2d2d2d2d2d2d2d2d2d2d2d2d2d2d2d2d2d0a000000000000000000000081525061126b565b61111f3389611c9b565b61114488604051806103800160405280610359815260200161384f6103599139611cb9565b61116760405180606001604052806025815260200161382a602591398933611d2d565b6111716007611dcc565b61119460405180606001604052806025815260200161382a602591398933611d2d565b7febb98688741ffa4c7589bf325de30cf7becb63de567842e1ccdb6cb949fdc82c33896040516111c5929190613111565b60405180910390a15050505050505050565b6000600560008473ffffffffffffffffffffffffffffffffffffffff1673ffffffffffffffffffffffffffffffffffffffff16815260200190815260200160002060008373ffffffffffffffffffffffffffffffffffffffff1673ffffffffffffffffffffffffffffffffffffffff16815260200190815260200160002060009054906101000a900460ff16905092915050565b6113018160405160240161127f9190613155565b6040516020818303038152906040527f41304fac000000000000000000000000000000000000000000000000000000007bffffffffffffffffffffffffffffffffffffffffffffffffffffffff19166020820180517bffffffffffffffffffffffffffffffffffffffffffffffffffffffff8381831617835250505050611de2565b50565b60007f01ffc9a7000000000000000000000000000000000000000000000000000000007bffffffffffffffffffffffffffffffffffffffffffffffffffffffff1916827bffffffffffffffffffffffffffffffffffffffffffffffffffffffff1916149050919050565b60008073ffffffffffffffffffffffffffffffffffffffff166002600084815260200190815260200160002060009054906101000a900473ffffffffffffffffffffffffffffffffffffffff1673ffffffffffffffffffffffffffffffffffffffff1614159050919050565b600033905090565b816004600083815260200190815260200160002060006101000a81548173ffffffffffffffffffffffffffffffffffffffff021916908373ffffffffffffffffffffffffffffffffffffffff160217905550808273ffffffffffffffffffffffffffffffffffffffff1661145583610841565b73ffffffffffffffffffffffffffffffffffffffff167f8c5be1e5ebec7d5bd14f71427d1e84f3dd0314c0f7b2291e5b200ac8c7c3b92560405160405180910390a45050565b60006114a68261136e565b6114e5576040517f08c379a00000000000000000000000000000000000000000000000000000000081526004016114dc90613235565b60405180910390fd5b60006114f083610841565b90508073ffffffffffffffffffffffffffffffffffffffff168473ffffffffffffffffffffffffffffffffffffffff16148061155f57508373ffffffffffffffffffffffffffffffffffffffff1661154784610506565b73ffffffffffffffffffffffffffffffffffffffff16145b80611570575061156f81856111d7565b5b91505092915050565b8273ffffffffffffffffffffffffffffffffffffffff1661159982610841565b73ffffffffffffffffffffffffffffffffffffffff16146115ef576040517f08c379a00000000000000000000000000000000000000000000000000000000081526004016115e690613335565b60405180910390fd5b600073ffffffffffffffffffffffffffffffffffffffff168273ffffffffffffffffffffffffffffffffffffffff16141561165f576040517f08c379a0000000000000000000000000000000000000000000000000000000008152600401611656906131f5565b60405180910390fd5b61166a838383611e0b565b6116756000826113e2565b6001600360008573ffffffffffffffffffffffffffffffffffffffff1673ffffffffffffffffffffffffffffffffffffffff16815260200190815260200160002060008282546116c5919061356a565b925050819055506001600360008473ffffffffffffffffffffffffffffffffffffffff1673ffffffffffffffffffffffffffffffffffffffff168152602001908152602001600020600082825461171c9190613489565b92505081905550816002600083815260200190815260200160002060006101000a81548173ffffffffffffffffffffffffffffffffffffffff021916908373ffffffffffffffffffffffffffffffffffffffff160217905550808273ffffffffffffffffffffffffffffffffffffffff168473ffffffffffffffffffffffffffffffffffffffff167fddf252ad1be2c89b69c2b068fc378daa952ba7f163c4a11628f55a4df523b3ef60405160405180910390a4505050565b6060600082141561181d576040518060400160405280600181526020017f3000000000000000000000000000000000000000000000000000000000000000815250905061197d565b600082905060005b6000821461184f57808061183890613686565b915050600a8261184891906134df565b9150611825565b60008167ffffffffffffffff811115611891577f4e487b7100000000000000000000000000000000000000000000000000000000600052604160045260246000fd5b6040519080825280601f01601f1916602001820160405280156118c35781602001600182028036833780820191505090505b5090505b60008514611976576001826118dc919061356a565b9150600a856118eb91906136cf565b60306118f79190613489565b60f81b818381518110611933577f4e487b7100000000000000000000000000000000000000000000000000000000600052603260045260246000fd5b60200101907effffffffffffffffffffffffffffffffffffffffffffffffffffffffffffff1916908160001a905350600a8561196f91906134df565b94506118c7565b8093505050505b919050565b6000816040516020016119959190612f28565b6040516020818303038152906040528051906020012060001c9050919050565b6119c0848484611579565b6119cc84848484611e10565b611a0b576040517f08c379a0000000000000000000000000000000000000000000000000000000008152600401611a02906131b5565b60405180910390fd5b50505050565b606060405180602001604052806000815250905090565b6060611a338261136e565b611a72576040517f08c379a0000000000000000000000000000000000000000000000000000000008152600401611a6990613355565b60405180910390fd5b6000611a7c611a11565b90506000815111611a9c5760405180602001604052806000815250611ac7565b80611aa6846117d5565b604051602001611ab7929190612f3f565b6040516020818303038152906040525b915050919050565b600081600001549050919050565b60606000825190506000811415611b065760405180602001604052806000815250915050611c96565b60006003600283611b179190613489565b611b2191906134df565b6004611b2d9190613510565b90506000602082611b3e9190613489565b67ffffffffffffffff811115611b7d577f4e487b7100000000000000000000000000000000000000000000000000000000600052604160045260246000fd5b6040519080825280601f01601f191660200182016040528015611baf5781602001600182028036833780820191505090505b5090506000604051806060016040528060408152602001613ba8604091399050600181016020830160005b86811015611c535760038101905062ffffff818a015116603f8160121c168401518060081b905060ff603f83600c1c1686015116810190508060081b905060ff603f8360061c1686015116810190508060081b905060ff603f831686015116810190508060e01b90508084526004840193505050611bda565b506003860660018114611c6d5760028114611c7d57611c88565b613d3d60f01b6002830352611c88565b603d60f81b60018303525b508484525050819450505050505b919050565b611cb5828260405180602001604052806000815250611fa7565b5050565b611cc28261136e565b611d01576040517f08c379a0000000000000000000000000000000000000000000000000000000008152600401611cf8906132b5565b60405180910390fd5b80600660008481526020019081526020016000209080519060200190611d289291906121e3565b505050565b611dc7838383604051602401611d4593929190613177565b6040516020818303038152906040527fe3849f79000000000000000000000000000000000000000000000000000000007bffffffffffffffffffffffffffffffffffffffffffffffffffffffff19166020820180517bffffffffffffffffffffffffffffffffffffffffffffffffffffffff8381831617835250505050611de2565b505050565b6001816000016000828254019250508190555050565b60008151905060006a636f6e736f6c652e6c6f679050602083016000808483855afa5050505050565b505050565b6000611e318473ffffffffffffffffffffffffffffffffffffffff16612002565b15611f9a578373ffffffffffffffffffffffffffffffffffffffff1663150b7a02611e5a6113da565b8786866040518563ffffffff1660e01b8152600401611e7c94939291906130c5565b602060405180830381600087803b158015611e9657600080fd5b505af1925050508015611ec757506040513d601f19601f82011682018060405250810190611ec49190612527565b60015b611f4a573d8060008114611ef7576040519150601f19603f3d011682016040523d82523d6000602084013e611efc565b606091505b50600081511415611f42576040517f08c379a0000000000000000000000000000000000000000000000000000000008152600401611f39906131b5565b60405180910390fd5b805181602001fd5b63150b7a0260e01b7bffffffffffffffffffffffffffffffffffffffffffffffffffffffff1916817bffffffffffffffffffffffffffffffffffffffffffffffffffffffff191614915050611f9f565b600190505b949350505050565b611fb18383612015565b611fbe6000848484611e10565b611ffd576040517f08c379a0000000000000000000000000000000000000000000000000000000008152600401611ff4906131b5565b60405180910390fd5b505050565b600080823b905060008111915050919050565b600073ffffffffffffffffffffffffffffffffffffffff168273ffffffffffffffffffffffffffffffffffffffff161415612085576040517f08c379a000000000000000000000000000000000000000000000000000000000815260040161207c906132d5565b60405180910390fd5b61208e8161136e565b156120ce576040517f08c379a00000000000000000000000000000000000000000000000000000000081526004016120c5906131d5565b60405180910390fd5b6120da60008383611e0b565b6001600360008473ffffffffffffffffffffffffffffffffffffffff1673ffffffffffffffffffffffffffffffffffffffff168152602001908152602001600020600082825461212a9190613489565b92505081905550816002600083815260200190815260200160002060006101000a81548173ffffffffffffffffffffffffffffffffffffffff021916908373ffffffffffffffffffffffffffffffffffffffff160217905550808273ffffffffffffffffffffffffffffffffffffffff16600073ffffffffffffffffffffffffffffffffffffffff167fddf252ad1be2c89b69c2b068fc378daa952ba7f163c4a11628f55a4df523b3ef60405160405180910390a45050565b8280546121ef90613654565b90600052602060002090601f0160209004810192826122115760008555612258565b82601f1061222a57805160ff1916838001178555612258565b82800160010185558215612258579182015b8281111561225757825182559160200191906001019061223c565b5b5090506122659190612269565b5090565b5b8082111561228257600081600090555060010161226a565b5090565b600061229961229484613401565b6133d0565b9050828152602081018484840111156122b157600080fd5b6122bc848285613612565b509392505050565b6000813590506122d3816137cd565b92915050565b6000813590506122e8816137e4565b92915050565b6000813590506122fd816137fb565b92915050565b600081519050612312816137fb565b92915050565b600082601f83011261232957600080fd5b8135612339848260208601612286565b91505092915050565b60008135905061235181613812565b92915050565b60006020828403121561236957600080fd5b6000612377848285016122c4565b91505092915050565b6000806040838503121561239357600080fd5b60006123a1858286016122c4565b92505060206123b2858286016122c4565b9150509250929050565b6000806000606084860312156123d157600080fd5b60006123df868287016122c4565b93505060206123f0868287016122c4565b925050604061240186828701612342565b9150509250925092565b6000806000806080858703121561242157600080fd5b600061242f878288016122c4565b9450506020612440878288016122c4565b935050604061245187828801612342565b925050606085013567ffffffffffffffff81111561246e57600080fd5b61247a87828801612318565b91505092959194509250565b6000806040838503121561249957600080fd5b60006124a7858286016122c4565b92505060206124b8858286016122d9565b9150509250929050565b600080604083850312156124d557600080fd5b60006124e3858286016122c4565b92505060206124f485828601612342565b9150509250929050565b60006020828403121561251057600080fd5b600061251e848285016122ee565b91505092915050565b60006020828403121561253957600080fd5b600061254784828501612303565b91505092915050565b60006020828403121561256257600080fd5b600061257084828501612342565b91505092915050565b6125828161359e565b82525050565b612591816135b0565b82525050565b60006125a282613446565b6125ac818561345c565b93506125bc818560208601613621565b6125c5816137bc565b840191505092915050565b60006125db82613451565b6125e5818561346d565b93506125f5818560208601613621565b6125fe816137bc565b840191505092915050565b600061261482613451565b61261e818561347e565b935061262e818560208601613621565b80840191505092915050565b6000815461264781613654565b612651818661347e565b9450600182166000811461266c576001811461267d576126b0565b60ff198316865281860193506126b0565b61268685613431565b60005b838110156126a857815481890152600182019150602081019050612689565b838801955050505b50505092915050565b60006126c660328361346d565b91507f4552433732313a207472616e7366657220746f206e6f6e20455243373231526560008301527f63656976657220696d706c656d656e74657200000000000000000000000000006020830152604082019050919050565b600061272c601c8361346d565b91507f4552433732313a20746f6b656e20616c7265616479206d696e746564000000006000830152602082019050919050565b600061276c600a8361347e565b91507f54484952445f574f5244000000000000000000000000000000000000000000006000830152600a82019050919050565b60006127ac60248361346d565b91507f4552433732313a207472616e7366657220746f20746865207a65726f2061646460008301527f72657373000000000000000000000000000000000000000000000000000000006020830152604082019050919050565b600061281260198361346d565b91507f4552433732313a20617070726f766520746f2063616c6c6572000000000000006000830152602082019050919050565b600061285260638361347e565b91507f222c20226465736372697074696f6e223a20224120686967686c79206163636c60008301527f61696d656420636f6c6c656374696f6e206f6620737175617265732e222c202260208301527f696d616765223a2022646174613a696d6167652f7376672b786d6c3b6261736560408301527f36342c00000000000000000000000000000000000000000000000000000000006060830152606382019050919050565b6000612904600b8361347e565b91507f5345434f4e445f574f52440000000000000000000000000000000000000000006000830152600b82019050919050565b6000612944602c8361346d565b91507f4552433732313a206f70657261746f7220717565727920666f72206e6f6e657860008301527f697374656e7420746f6b656e00000000000000000000000000000000000000006020830152604082019050919050565b60006129aa600d8361347e565b91507f3c2f746578743e3c2f7376673e000000000000000000000000000000000000006000830152600d82019050919050565b60006129ea60388361346d565b91507f4552433732313a20617070726f76652063616c6c6572206973206e6f74206f7760008301527f6e6572206e6f7220617070726f76656420666f7220616c6c00000000000000006020830152604082019050919050565b6000612a50602a8361346d565b91507f4552433732313a2062616c616e636520717565727920666f7220746865207a6560008301527f726f2061646472657373000000000000000000000000000000000000000000006020830152604082019050919050565b6000612ab660298361346d565b91507f4552433732313a206f776e657220717565727920666f72206e6f6e657869737460008301527f656e7420746f6b656e00000000000000000000000000000000000000000000006020830152604082019050919050565b6000612b1c602e8361346d565b91507f45524337323155524953746f726167653a2055524920736574206f66206e6f6e60008301527f6578697374656e7420746f6b656e0000000000000000000000000000000000006020830152604082019050919050565b6000612b8260028361347e565b91507f227d0000000000000000000000000000000000000000000000000000000000006000830152600282019050919050565b6000612bc260208361346d565b91507f4552433732313a206d696e7420746f20746865207a65726f20616464726573736000830152602082019050919050565b6000612c0260318361346d565b91507f45524337323155524953746f726167653a2055524920717565727920666f722060008301527f6e6f6e6578697374656e7420746f6b656e0000000000000000000000000000006020830152604082019050919050565b6000612c68602c8361346d565b91507f4552433732313a20617070726f76656420717565727920666f72206e6f6e657860008301527f697374656e7420746f6b656e00000000000000000000000000000000000000006020830152604082019050919050565b6000612cce60298361346d565b91507f4552433732313a207472616e73666572206f6620746f6b656e2074686174206960008301527f73206e6f74206f776e00000000000000000000000000000000000000000000006020830152604082019050919050565b6000612d34602f8361346d565b91507f4552433732314d657461646174613a2055524920717565727920666f72206e6f60008301527f6e6578697374656e7420746f6b656e00000000000000000000000000000000006020830152604082019050919050565b6000612d9a600a8361347e565b91507f7b226e616d65223a2022000000000000000000000000000000000000000000006000830152600a82019050919050565b6000612dda60218361346d565b91507f4552433732313a20617070726f76616c20746f2063757272656e74206f776e6560008301527f72000000000000000000000000000000000000000000000000000000000000006020830152604082019050919050565b6000612e40600a8361347e565b91507f46495253545f574f5244000000000000000000000000000000000000000000006000830152600a82019050919050565b6000612e80601d8361347e565b91507f646174613a6170706c69636174696f6e2f6a736f6e3b6261736536342c0000006000830152601d82019050919050565b6000612ec060318361346d565b91507f4552433732313a207472616e736665722063616c6c6572206973206e6f74206f60008301527f776e6572206e6f7220617070726f7665640000000000000000000000000000006020830152604082019050919050565b612f2281613608565b82525050565b6000612f348284612609565b915081905092915050565b6000612f4b8285612609565b9150612f578284612609565b91508190509392505050565b6000612f6f8286612609565b9150612f7b8285612609565b9150612f878284612609565b9150819050949350505050565b6000612fa0828761263a565b9150612fac8286612609565b9150612fb88285612609565b9150612fc48284612609565b9150612fcf8261299d565b915081905095945050505050565b6000612fe88261275f565b9150612ff48284612609565b915081905092915050565b600061300a826128f7565b91506130168284612609565b915081905092915050565b600061302c82612d8d565b91506130388285612609565b915061304382612845565b915061304f8284612609565b915061305a82612b75565b91508190509392505050565b600061307182612e33565b915061307d8284612609565b915081905092915050565b600061309382612e73565b915061309f8284612609565b915081905092915050565b60006020820190506130bf6000830184612579565b92915050565b60006080820190506130da6000830187612579565b6130e76020830186612579565b6130f46040830185612f19565b81810360608301526131068184612597565b905095945050505050565b60006040820190506131266000830185612579565b6131336020830184612f19565b9392505050565b600060208201905061314f6000830184612588565b92915050565b6000602082019050818103600083015261316f81846125d0565b905092915050565b6000606082019050818103600083015261319181866125d0565b90506131a06020830185612f19565b6131ad6040830184612579565b949350505050565b600060208201905081810360008301526131ce816126b9565b9050919050565b600060208201905081810360008301526131ee8161271f565b9050919050565b6000602082019050818103600083015261320e8161279f565b9050919050565b6000602082019050818103600083015261322e81612805565b9050919050565b6000602082019050818103600083015261324e81612937565b9050919050565b6000602082019050818103600083015261326e816129dd565b9050919050565b6000602082019050818103600083015261328e81612a43565b9050919050565b600060208201905081810360008301526132ae81612aa9565b9050919050565b600060208201905081810360008301526132ce81612b0f565b9050919050565b600060208201905081810360008301526132ee81612bb5565b9050919050565b6000602082019050818103600083015261330e81612bf5565b9050919050565b6000602082019050818103600083015261332e81612c5b565b9050919050565b6000602082019050818103600083015261334e81612cc1565b9050919050565b6000602082019050818103600083015261336e81612d27565b9050919050565b6000602082019050818103600083015261338e81612dcd565b9050919050565b600060208201905081810360008301526133ae81612eb3565b9050919050565b60006020820190506133ca6000830184612f19565b92915050565b6000604051905081810181811067ffffffffffffffff821117156133f7576133f661378d565b5b8060405250919050565b600067ffffffffffffffff82111561341c5761341b61378d565b5b601f19601f8301169050602081019050919050565b60008190508160005260206000209050919050565b600081519050919050565b600081519050919050565b600082825260208201905092915050565b600082825260208201905092915050565b600081905092915050565b600061349482613608565b915061349f83613608565b9250827fffffffffffffffffffffffffffffffffffffffffffffffffffffffffffffffff038211156134d4576134d3613700565b5b828201905092915050565b60006134ea82613608565b91506134f583613608565b9250826135055761350461372f565b5b828204905092915050565b600061351b82613608565b915061352683613608565b9250817fffffffffffffffffffffffffffffffffffffffffffffffffffffffffffffffff048311821515161561355f5761355e613700565b5b828202905092915050565b600061357582613608565b915061358083613608565b92508282101561359357613592613700565b5b828203905092915050565b60006135a9826135e8565b9050919050565b60008115159050919050565b60007fffffffff0000000000000000000000000000000000000000000000000000000082169050919050565b600073ffffffffffffffffffffffffffffffffffffffff82169050919050565b6000819050919050565b82818337600083830152505050565b60005b8381101561363f578082015181840152602081019050613624565b8381111561364e576000848401525b50505050565b6000600282049050600182168061366c57607f821691505b602082108114156136805761367f61375e565b5b50919050565b600061369182613608565b91507fffffffffffffffffffffffffffffffffffffffffffffffffffffffffffffffff8214156136c4576136c3613700565b5b600182019050919050565b60006136da82613608565b91506136e583613608565b9250826136f5576136f461372f565b5b828206905092915050565b7f4e487b7100000000000000000000000000000000000000000000000000000000600052601160045260246000fd5b7f4e487b7100000000000000000000000000000000000000000000000000000000600052601260045260246000fd5b7f4e487b7100000000000000000000000000000000000000000000000000000000600052602260045260246000fd5b7f4e487b7100000000000000000000000000000000000000000000000000000000600052604160045260246000fd5b6000601f19601f8301169050919050565b6137d68161359e565b81146137e157600080fd5b50565b6137ed816135b0565b81146137f857600080fd5b50565b613804816135bc565b811461380f57600080fd5b50565b61381b81613608565b811461382657600080fd5b5056fe416e204e465420772f20494420257320686173206265656e206d696e74656420746f202573646174613a6170706c69636174696f6e2f6a736f6e3b6261736536342c65776f6749434167496d3568625755694f6941695258427059307876636d52495957316964584a6e5a5849694c416f6749434167496d526c63324e796158423061573975496a6f67496b4675494535475643426d636d39744948526f5a53426f6157646f62486b6759574e6a624746706257566b49484e78645746795a53426a623278735a574e30615739754969774b4943416749434a706257466e5a53493649434a6b595852684f6d6c745957646c4c334e325a79743462577737596d467a5a5459304c464249546a4a6165554930596c643464574e364d476c685346497759305276646b777a5a444e6b6554557a54586b31646d4e7459335a4e616b463354554d35656d527459326c4a53454a35576c684f62474e75576d785257453533576c644f4d465674526a4268567a67355357356f546d46584e56705556327831535563786246705955576c4a53467077576c686b5132497a5a7a6c4a616b466e54554e42656b35555157644e656c563353576f3053306c445157644a524868365a456873633170554e48565a62555a36576c4e434e306c48576e4269523363325355686b62324659556d785065554a74596a49314d457858576d68695632787a5a5652765a324d79566e6c6856316b3353556461646d4a755558526a4d6d7732576c52765a303155556e646c52484e6e5a6c5233646d4d7a556a56695231557251326c425a306c445154686a62565a715a454e434d324658556a42685244427054565242643070545357646852315a77576a4a6f4d4642545358684e5245467353576c436257465865484e5155307070596b6447616d46355357644d656a524c53554e425a306c4565444261574767775355686e4f556c715658644b55306c6e5a565177615535555157784a61554a71596b6447656d4e364d476c5a62555a36576c4e4a5a3170484f585268567a566f596d355264466c74526e706156336877596d31564f556c744d58426152314a7a576c4e4a5a325248566a526b517a466f596d314f6232497a53546c4a62544677576b6453633170545353745357454a7757544234646d4e74556b6c5a567a46705a46684b626c70595354684d4d314a735a5568524b304e7164335a6a4d317075554763395053494b66513d3d4142434445464748494a4b4c4d4e4f505152535455565758595a6162636465666768696a6b6c6d6e6f707172737475767778797a303132333435363738392b2fa2646970667358221220f7aaaa0b5d3e27db473840c191a2863c251444e351afab8ea8b9cee547ab9e7264736f6c634300080000333c73766720786d6c6e733d27687474703a2f2f7777772e77332e6f72672f323030302f73766727207072657365727665417370656374526174696f3d27784d696e594d696e206d656574272076696577426f783d273020302033353020333530273e3c7374796c653e2e62617365207b2066696c6c3a2077686974653b20666f6e742d66616d696c793a2073657269663b20666f6e742d73697a653a20323470783b207d3c2f7374796c653e3c726563742077696474683d273130302527206865696768743d2731303025272066696c6c3d27626c61636b27202f3e3c7465787420783d273530252720793d273530252720636c6173733d27626173652720646f6d696e616e742d626173656c696e653d276d6964646c652720746578742d616e63686f723d276d6964646c65273e",
  "linkReferences": {},
  "deployedLinkReferences": {}
}